:020000040000FA
:04000000FEEFFFF020
:020000040001F9
:04FEB2001200120028
:10FEB70021120C1221000EC66E000E0401006F8085
:10FEC7000ECE6E1200800EBE6E900E03011A6F5496
:10FED7000E1B6F120003011A9F121C146E131C15C0
:10FEE7006E610050F418F31550196FB19E1A8F12F6
:10FEF70000000E096E000E0A6E000E0B6E000E0C4F
:10FF07006E000E056E000E066E000E076E000E08E0
:10FF17006E1200B70EF66EFE0EF76E010EF86E014A
:10FF2700EE18F110EE05F00900F5C4EEF4E550E126
:10FF370050FAE101EE01F1110EEE6AE806FDE1006B
:10FF470001A6EFFFF0048E59ECFFF07CECFFF05EAA
:10FF5700ECFFF066ECFFF0C4ECFFF05AECFFF003A7
:10FF67000E136EE80E126E6EECFFF0B1AEBEEFFF31
:10FF7700F0C0EFFFF0B9EFFFF0AFEFFFF0FEEFFFDC
:10FF8700F021EE18F111EE12F1040EDBC4E3F4E8F0
:10FF970006FCE20F4A102AFA0E0F181010D8A4D741
:10FFA700EFFFF0D9EFFFF0FDEFFFF0000E106E004E
:10FFB7000E0F6E6100F8F217F5800E1716120E0D70
:10FFC70024D96E050E0E20DA6EDF50171261005C21
:10FFD700F4BEF40D4A0E2A050E0D180E10D8A4F71C
:10FFE700EFFFF0F9EFFFF0FDEFFFF0000E0E6E00F0
:09FFF7000E0D6E12008DEFFFF0FB
:020000040020DA
:10000000FF0FFF0FFF0FFF0FFF0FFF0FFF0FFF0F80
:10001000FF0FFF0FFF0FFF0FFF0FFF0FFF0FFF0F70
:020000040030CA
:0A0000008CFEFFFC9FFFFFFFFFFFD7
:00000001FF
