:020000040000FA
:04000000FEEFFFF020
:020000040001F9
:10FF4E00120012001200400EC66E000E0401006F69
:10FF5E00800ECE6E120001EE01F10D0EEE6AE80675
:10FF6E00FDE10001BBEFFFF0048EA7ECFFF0CAEC41
:10FF7E00FFF0AAECFFF0A9ECFFF0DBECFFF0C4EF12
:10FF8E00FFF0FEEFFFF0000E096E000E0A6E000E7F
:10FF9E000B6E000E0C6E000E056E000E066E000E41
:10FFAE00076E000E086E1200000E116E000E106E1F
:10FFBE001050800FCE6E3F0E10181110D8A4EAEF1D
:10FFCE00FFF0ECEFFFF0EEEFFFF0106811680B0E94
:10FFDE000F6E260E0E6E5E0EE82EFED70E2EFCD780
:10FFEE000F2EFAD7104A112ADFEFFFF01200B2EFF0
:02FFFE00FFF012
:020000040020DA
:10000000FF0FFF0FFF0FFF0FFF0FFF0FFF0FFF0F80
:10001000FF0FFF0FFF0FFF0FFF0FFF0FFF0FFF0F70
:020000040030CA
:0A0000008CFEFFFC9FFFFFFFFFFFD7
:00000001FF
