:020000040000FA
:04000000FEEFFFF020
:020000040001F9
:10FF4A00120012001200400EC66E000E0401006F6D
:10FF5A00800ECE6E120001EE01F10D0EEE6AE80679
:10FF6A00FDE10001CAEFFFF0000E096E000E0A6EF5
:10FF7A00000E0B6E000E0C6E000E056E000E066E65
:10FF8A00000E076E000E086E1200048EA5ECFFF03C
:10FF9A00B9ECFFF0A8ECFFF0DBECFFF0A7ECFFF008
:10FFAA00A6ECFFF0D3EFFFF0FEEFFFF0000E116EAC
:10FFBA00000E106E1050800FCE6E3F0E10181110EA
:10FFCA00D8A4EAEFFFF0ECEFFFF0EEEFFFF01068D5
:10FFDA001168060E0F6E130E0E6EAE0EE82EFED7C9
:10FFEA000E2EFCD70F2EFAD7104A112ADFEFFFF098
:06FFFA001200B0EFFFF061
:020000040020DA
:10000000FF0FFF0FFF0FFF0FFF0FFF0FFF0FFF0F80
:10001000FF0FFF0FFF0FFF0FFF0FFF0FFF0FFF0F70
:020000040030CA
:0A0000008CFEFFFC9FFFFFFFFFFFD7
:00000001FF
