:020000040000FA
:04000000FEEFFFF020
:020000040001F9
:10FF4A00120012001200400EC66E000E0401006F6D
:10FF5A00800ECE6E120001EE01F10D0EEE6AE80679
:10FF6A00FDE10001B9EFFFF0048EA5ECFFF0C8EC4B
:10FF7A00FFF0A8ECFFF0A7ECFFF0D9ECFFF0C2EF1E
:10FF8A00FFF0FEEFFFF0000E096E000E0A6E000E83
:10FF9A000B6E000E0C6E000E056E000E066E000E45
:10FFAA00076E000E086E1200000E116E010E106E22
:10FFBA001050800FCE6E3F0E10181110D8A4E8EF23
:10FFCA00FFF0EAEFFFF0EEEFFFF0000E116E000E09
:10FFDA00106E060E0F6E130E0E6EAE0EE82EFED7C4
:10FFEA000E2EFCD70F2EFAD7104A112ADDEFFFF09A
:06FFFA001200B0EFFFF061
:020000040020DA
:10000000FF0FFF0FFF0FFF0FFF0FFF0FFF0FFF0F80
:10001000FF0FFF0FFF0FFF0FFF0FFF0FFF0FFF0F70
:020000040030CA
:0A0000008CFEFFFC9FFFFFFFFFFFD7
:00000001FF
