:020000040000FA
:04000000FEEFFFF020
:020000040001F9
:10FF160012001200120001EE01F1110EEE6AE8065F
:10FF2600FDE10001A3EFFFF0400EC66E200EC76E86
:10FF3600000E0401006F000E086F800ECE6E1200D8
:10FF4600088E8BECFFF0B2ECFFF097ECFFF08DEC37
:10FF5600FFF0C3ECFFF0ACEFFFF0FEEFFFF0000E9A
:10FF66000D6E000E0E6E000E0F6E000E106E000E61
:10FF7600096E000E0A6E000E0B6E000E0C6E12005D
:10FF8600CFAAC8EFFFF0CAEFFFF0FDEFFFF00B0EB0
:10FF9600136E260E126E5E0EE82EFED7122EFCD7BC
:10FFA600132EFAD7CFBADAEFFFF0DCEFFFF0FDEF52
:10FFB600FFF0BF0E0118021003100410D8A4E6EFDC
:10FFC600FFF0E8EFFFF0F4EFFFF0000E016E000E19
:10FFD600026E000E036E000E046E800ECE6EFDEFF6
:10FFE600FFF0010E0126000E022203220422015018
:0AFFF600800FCE6E12008EEFFFF0B8
:020000040020DA
:10000000FF0FFF0FFF0FFF0FFF0FFF0FFF0FFF0F80
:10001000FF0FFF0FFF0FFF0FFF0FFF0FFF0FFF0F70
:020000040030CA
:0A0000008CFEFFFC9FFFFFFFFFFFD7
:00000001FF
